{
  "_format": "hh-sol-artifact-1",
  "contractName": "CrowdFunding",
  "sourceName": "contracts/CrowdFundingwithSeeds.sol",
  "abi": [
    {
      "inputs": [],
      "stateMutability": "nonpayable",
      "type": "constructor"
    },
    {
      "anonymous": false,
      "inputs": [
        {
          "indexed": true,
          "internalType": "uint256",
          "name": "id",
          "type": "uint256"
        },
        {
          "indexed": false,
          "internalType": "address",
          "name": "owner",
          "type": "address"
        },
        {
          "indexed": false,
          "internalType": "string",
          "name": "title",
          "type": "string"
        }
      ],
      "name": "CampaignCreated",
      "type": "event"
    },
    {
      "anonymous": false,
      "inputs": [
        {
          "indexed": true,
          "internalType": "uint256",
          "name": "campaignId",
          "type": "uint256"
        },
        {
          "indexed": false,
          "internalType": "string",
          "name": "title",
          "type": "string"
        },
        {
          "indexed": false,
          "internalType": "address",
          "name": "donor",
          "type": "address"
        },
        {
          "indexed": false,
          "internalType": "uint256",
          "name": "amount",
          "type": "uint256"
        }
      ],
      "name": "DonationMade",
      "type": "event"
    },
    {
      "inputs": [
        {
          "internalType": "uint256",
          "name": "campaignId",
          "type": "uint256"
        }
      ],
      "name": "campaignExists",
      "outputs": [
        {
          "internalType": "bool",
          "name": "",
          "type": "bool"
        }
      ],
      "stateMutability": "view",
      "type": "function"
    },
    {
      "inputs": [
        {
          "internalType": "uint256",
          "name": "",
          "type": "uint256"
        }
      ],
      "name": "campaigns",
      "outputs": [
        {
          "internalType": "uint256",
          "name": "id",
          "type": "uint256"
        },
        {
          "internalType": "address",
          "name": "owner",
          "type": "address"
        },
        {
          "internalType": "string",
          "name": "title",
          "type": "string"
        },
        {
          "internalType": "string",
          "name": "metadata",
          "type": "string"
        },
        {
          "internalType": "uint256",
          "name": "target",
          "type": "uint256"
        },
        {
          "internalType": "uint256",
          "name": "deadline",
          "type": "uint256"
        },
        {
          "internalType": "uint256",
          "name": "amountCollected",
          "type": "uint256"
        },
        {
          "internalType": "bool",
          "name": "exists",
          "type": "bool"
        }
      ],
      "stateMutability": "view",
      "type": "function"
    },
    {
      "inputs": [
        {
          "internalType": "address",
          "name": "owner",
          "type": "address"
        },
        {
          "internalType": "string",
          "name": "title",
          "type": "string"
        },
        {
          "internalType": "string",
          "name": "metadata",
          "type": "string"
        },
        {
          "internalType": "uint256",
          "name": "target",
          "type": "uint256"
        },
        {
          "internalType": "uint256",
          "name": "deadline",
          "type": "uint256"
        }
      ],
      "name": "createCampaign",
      "outputs": [],
      "stateMutability": "nonpayable",
      "type": "function"
    },
    {
      "inputs": [
        {
          "internalType": "uint256",
          "name": "campaignId",
          "type": "uint256"
        }
      ],
      "name": "donate",
      "outputs": [],
      "stateMutability": "payable",
      "type": "function"
    },
    {
      "inputs": [],
      "name": "getAllCampaigns",
      "outputs": [
        {
          "components": [
            {
              "internalType": "uint256",
              "name": "id",
              "type": "uint256"
            },
            {
              "internalType": "address",
              "name": "owner",
              "type": "address"
            },
            {
              "internalType": "string",
              "name": "title",
              "type": "string"
            },
            {
              "internalType": "string",
              "name": "metadata",
              "type": "string"
            },
            {
              "internalType": "uint256",
              "name": "target",
              "type": "uint256"
            },
            {
              "internalType": "uint256",
              "name": "deadline",
              "type": "uint256"
            },
            {
              "internalType": "uint256",
              "name": "amountCollected",
              "type": "uint256"
            },
            {
              "internalType": "bool",
              "name": "exists",
              "type": "bool"
            },
            {
              "internalType": "address[]",
              "name": "donators",
              "type": "address[]"
            }
          ],
          "internalType": "struct CrowdFunding.Campaign[]",
          "name": "",
          "type": "tuple[]"
        }
      ],
      "stateMutability": "view",
      "type": "function"
    },
    {
      "inputs": [
        {
          "internalType": "uint256",
          "name": "campaignId",
          "type": "uint256"
        }
      ],
      "name": "getCampaign",
      "outputs": [
        {
          "components": [
            {
              "internalType": "uint256",
              "name": "id",
              "type": "uint256"
            },
            {
              "internalType": "address",
              "name": "owner",
              "type": "address"
            },
            {
              "internalType": "string",
              "name": "title",
              "type": "string"
            },
            {
              "internalType": "string",
              "name": "metadata",
              "type": "string"
            },
            {
              "internalType": "uint256",
              "name": "target",
              "type": "uint256"
            },
            {
              "internalType": "uint256",
              "name": "deadline",
              "type": "uint256"
            },
            {
              "internalType": "uint256",
              "name": "amountCollected",
              "type": "uint256"
            },
            {
              "internalType": "bool",
              "name": "exists",
              "type": "bool"
            },
            {
              "internalType": "address[]",
              "name": "donators",
              "type": "address[]"
            }
          ],
          "internalType": "struct CrowdFunding.Campaign",
          "name": "",
          "type": "tuple"
        }
      ],
      "stateMutability": "view",
      "type": "function"
    },
    {
      "inputs": [],
      "name": "getCurrentTimestamp",
      "outputs": [
        {
          "internalType": "uint256",
          "name": "",
          "type": "uint256"
        }
      ],
      "stateMutability": "view",
      "type": "function"
    },
    {
      "inputs": [
        {
          "internalType": "address",
          "name": "userAddress",
          "type": "address"
        }
      ],
      "name": "getUser",
      "outputs": [
        {
          "internalType": "address",
          "name": "id",
          "type": "address"
        },
        {
          "internalType": "uint256[]",
          "name": "campaignIds",
          "type": "uint256[]"
        },
        {
          "internalType": "uint256",
          "name": "totalAmountDonated",
          "type": "uint256"
        }
      ],
      "stateMutability": "view",
      "type": "function"
    },
    {
      "inputs": [],
      "name": "numberOfCampaigns",
      "outputs": [
        {
          "internalType": "uint256",
          "name": "",
          "type": "uint256"
        }
      ],
      "stateMutability": "view",
      "type": "function"
    },
    {
      "inputs": [],
      "name": "numberOfUsers",
      "outputs": [
        {
          "internalType": "uint256",
          "name": "",
          "type": "uint256"
        }
      ],
      "stateMutability": "view",
      "type": "function"
    },
    {
      "inputs": [
        {
          "internalType": "address",
          "name": "",
          "type": "address"
        }
      ],
      "name": "users",
      "outputs": [
        {
          "internalType": "address",
          "name": "id",
          "type": "address"
        },
        {
          "internalType": "uint256",
          "name": "totalAmountDonated",
          "type": "uint256"
        }
      ],
      "stateMutability": "view",
      "type": "function"
    }
  ],
  "bytecode": "0x608060405260008055600060035534801561001957600080fd5b5061002861003b60201b60201c565b6100366104a960201b60201c565b6115d6565b6100bc738626f6940e2eb28930efb4cef49b2d1f2c9c11996040518060400160405280600f81526020017f436f64654272696467652043616d70000000000000000000000000000000000081525060405180608001604052806050815260200161397c6050913968068155a43676e000006369386aa8610cef60201b60201c565b61013d738626f6940e2eb28930efb4cef49b2d1f2c9c11996040518060400160405280601681526020017f477265656e20456172746820496e697469617469766500000000000000000000815250604051806080016040528060508152602001613abc605091396804e1003b28d92800006368dc21e4610cef60201b60201c565b6101be738626f6940e2eb28930efb4cef49b2d1f2c9c11996040518060400160405280601281526020017f426f6f6b7320666f7220546f6d6f72726f770000000000000000000000000000815250604051806080016040528060508152602001613c23605091396804563918244f4000006369556ba8610cef60201b60201c565b61023f738626f6940e2eb28930efb4cef49b2d1f2c9c11996040518060400160405280601e81526020017f4865616c696e6720486561727473204d65646963616c204d697373696f6e0000815250604051806080016040528060508152602001613bd360509139680bed1d0263d9f000006368b494a8610cef60201b60201c565b6102c0738626f6940e2eb28930efb4cef49b2d1f2c9c11996040518060400160405280601981526020017f43616e76617320447265616d7320417274205468657261707900000000000000815250604051806080016040528060508152602001613a6c605091396803cb71f51fc5580000636862d7a8610cef60201b60201c565b6103417371be63f3384f5fb98995898a86b02fb2426c57886040518060400160405280602081526020017f496e6e6f766174696f6e20487562205374617274757020496e63756261746f72815250604051806080016040528060508152602001613a1c60509139680d02ab486cedc0000063688bc438610cef60201b60201c565b6103c27371be63f3384f5fb98995898a86b02fb2426c57886040518060400160405280601f81526020017f526f626f74696373204578706c6f7265722043616d7020666f72204b696473008152506040518060800160405280605081526020016139cc605091396812f939c99edab800006369556ba8610cef60201b60201c565b6104437371be63f3384f5fb98995898a86b02fb2426c57886040518060400160405280601b81526020017f5269736520557020576f6d656e277320456d706f7765726d656e740000000000815250604051806080016040528060508152602001613b5c60509139680340aad21b3b7000006368c07228610cef60201b60201c565b6104a77371be63f3384f5fb98995898a86b02fb2426c5788604051806060016040528060278152602001613bac60279139604051806080016040528060508152602001613b0c60509139681043561a88293000006368eabe84610cef60201b60201c565b565b6000600667ffffffffffffffff8111156104c6576104c56110e4565b5b6040519080825280602002602001820160405280156104f45781602001602082028036833780820191505090505b50905073f39fd6e51aad88f6f4ce6ab8827279cfffb92266816000815181106105205761051f611113565b5b602002602001019073ffffffffffffffffffffffffffffffffffffffff16908173ffffffffffffffffffffffffffffffffffffffff16815250507370997970c51812dc3a010c7d01b50e0d17dc79c88160018151811061058357610582611113565b5b602002602001019073ffffffffffffffffffffffffffffffffffffffff16908173ffffffffffffffffffffffffffffffffffffffff1681525050733c44cdddb6a900fa2b585dd299e03d12fa4293bc816002815181106105e6576105e5611113565b5b602002602001019073ffffffffffffffffffffffffffffffffffffffff16908173ffffffffffffffffffffffffffffffffffffffff16815250507390f79bf6eb2c4f870365e785982e1f101e93b9068160038151811061064957610648611113565b5b602002602001019073ffffffffffffffffffffffffffffffffffffffff16908173ffffffffffffffffffffffffffffffffffffffff16815250507315d34aaf54267db7d7c367839aaf71a00a2c6a65816004815181106106ac576106ab611113565b5b602002602001019073ffffffffffffffffffffffffffffffffffffffff16908173ffffffffffffffffffffffffffffffffffffffff1681525050739965507d1a55bcc2695c58ba16fb37d819b0a4dc8160058151811061070f5761070e611113565b5b602002602001019073ffffffffffffffffffffffffffffffffffffffff16908173ffffffffffffffffffffffffffffffffffffffff168152505061077e60008260008151811061076257610761611113565b5b602002602001015167d02ab486cedc0000610f3460201b60201c565b6107b360008260018151811061079757610796611113565b5b6020026020010151676f05b59d3b200000610f3460201b60201c565b6107e86000826002815181106107cc576107cb611113565b5b6020026020010151676124fee993bc0000610f3460201b60201c565b61081e60018260018151811061080157610800611113565b5b60200260200101516801158e460913d00000610f3460201b60201c565b61085360018260038151811061083757610836611113565b5b602002602001015167a688906bd8b00000610f3460201b60201c565b61088860018260048151811061086c5761086b611113565b5b6020026020010151673782dace9d900000610f3460201b60201c565b6108be6002826000815181106108a1576108a0611113565b5b602002602001015168015af1d78b58c40000610f3460201b60201c565b6108f36002826002815181106108d7576108d6611113565b5b602002602001015167d02ab486cedc0000610f3460201b60201c565b61092860028260058151811061090c5761090b611113565b5b6020026020010151676f05b59d3b200000610f3460201b60201c565b61095e60038260018151811061094157610940611113565b5b60200260200101516801e5b8fa8fe2ac0000610f3460201b60201c565b61099460038260038151811061097757610976611113565b5b60200260200101516801158e460913d00000610f3460201b60201c565b6109c96003826004815181106109ad576109ac611113565b5b60200260200101516798a7d9b8314c0000610f3460201b60201c565b6109ff6004826000815181106109e2576109e1611113565b5b60200260200101516801a055690d9db80000610f3460201b60201c565b610a34600482600281518110610a1857610a17611113565b5b602002602001015167f9ccd8a1c5080000610f3460201b60201c565b610a69600482600581518110610a4d57610a4c611113565b5b6020026020010151676f05b59d3b200000610f3460201b60201c565b610a9f600582600181518110610a8257610a81611113565b5b602002602001015168015af1d78b58c40000610f3460201b60201c565b610ad4600582600381518110610ab857610ab7611113565b5b602002602001015167d02ab486cedc0000610f3460201b60201c565b610b09600582600481518110610aed57610aec611113565b5b6020026020010151676f05b59d3b200000610f3460201b60201c565b610b3f600682600081518110610b2257610b21611113565b5b60200260200101516801a055690d9db80000610f3460201b60201c565b610b75600682600281518110610b5857610b57611113565b5b60200260200101516801158e460913d00000610f3460201b60201c565b610baa600682600581518110610b8e57610b8d611113565b5b60200260200101516722b1c8c1227a0000610f3460201b60201c565b610be0600782600181518110610bc357610bc2611113565b5b602002602001015168015af1d78b58c40000610f3460201b60201c565b610c16600782600381518110610bf957610bf8611113565b5b60200260200101516801158e460913d00000610f3460201b60201c565b610c4b600782600481518110610c2f57610c2e611113565b5b6020026020010151677ce66c50e2840000610f3460201b60201c565b610c81600882600081518110610c6457610c63611113565b5b60200260200101516802fb474098f67c0000610f3460201b60201c565b610cb7600882600281518110610c9a57610c99611113565b5b60200260200101516801e5b8fa8fe2ac0000610f3460201b60201c565b610cec600882600581518110610cd057610ccf611113565b5b602002602001015167d02ab486cedc0000610f3460201b60201c565b50565b60008054905060006001600083815260200190815260200160002090506000548160000181905550868160010160006101000a81548173ffffffffffffffffffffffffffffffffffffffff021916908373ffffffffffffffffffffffffffffffffffffffff16021790555085816002019081610d6b9190611363565b5083816004018190555084816003019081610d869190611363565b508281600501819055506000816006018190555060018160070160006101000a81548160ff021916908315150217905550600080815480929190610dc990611464565b91905055506000600260008973ffffffffffffffffffffffffffffffffffffffff1673ffffffffffffffffffffffffffffffffffffffff1681526020019081526020016000209050600073ffffffffffffffffffffffffffffffffffffffff168160000160009054906101000a900473ffffffffffffffffffffffffffffffffffffffff1673ffffffffffffffffffffffffffffffffffffffff1603610ec557878160000160006101000a81548173ffffffffffffffffffffffffffffffffffffffff021916908373ffffffffffffffffffffffffffffffffffffffff16021790555060036000815480929190610ebf90611464565b91905055505b80600101839080600181540180825580915050600190039060005260206000200160009091909190915055827fc04c663886cae794dc52158f70fe6c8ee3b0140d4f48647282f9b693ff688a658989604051610f22929190611572565b60405180910390a25050505050505050565b600060016000858152602001908152602001600020905081816006016000828254610f5f91906115a2565b9250508190555080600801839080600181540180825580915050600190039060005260206000200160009091909190916101000a81548173ffffffffffffffffffffffffffffffffffffffff021916908373ffffffffffffffffffffffffffffffffffffffff1602179055506000600260008573ffffffffffffffffffffffffffffffffffffffff1673ffffffffffffffffffffffffffffffffffffffff1681526020019081526020016000209050600073ffffffffffffffffffffffffffffffffffffffff168160000160009054906101000a900473ffffffffffffffffffffffffffffffffffffffff1673ffffffffffffffffffffffffffffffffffffffff16036110c257838160000160006101000a81548173ffffffffffffffffffffffffffffffffffffffff021916908373ffffffffffffffffffffffffffffffffffffffff160217905550600360008154809291906110bc90611464565b91905055505b828160020160008282546110d691906115a2565b925050819055505050505050565b7f4e487b7100000000000000000000000000000000000000000000000000000000600052604160045260246000fd5b7f4e487b7100000000000000000000000000000000000000000000000000000000600052603260045260246000fd5b600081519050919050565b7f4e487b7100000000000000000000000000000000000000000000000000000000600052602260045260246000fd5b6000600282049050600182168061119457607f821691505b6020821081036111a7576111a661114d565b5b50919050565b60008190508160005260206000209050919050565b60006020601f8301049050919050565b600082821b905092915050565b60006008830261120f7fffffffffffffffffffffffffffffffffffffffffffffffffffffffffffffffff826111d2565b61121986836111d2565b95508019841693508086168417925050509392505050565b6000819050919050565b6000819050919050565b600061126061125b61125684611231565b61123b565b611231565b9050919050565b6000819050919050565b61127a83611245565b61128e61128682611267565b8484546111df565b825550505050565b600090565b6112a3611296565b6112ae818484611271565b505050565b5b818110156112d2576112c760008261129b565b6001810190506112b4565b5050565b601f821115611317576112e8816111ad565b6112f1846111c2565b81016020851015611300578190505b61131461130c856111c2565b8301826112b3565b50505b505050565b600082821c905092915050565b600061133a6000198460080261131c565b1980831691505092915050565b60006113538383611329565b9150826002028217905092915050565b61136c82611142565b67ffffffffffffffff811115611385576113846110e4565b5b61138f825461117c565b61139a8282856112d6565b600060209050601f8311600181146113cd57600084156113bb578287015190505b6113c58582611347565b86555061142d565b601f1984166113db866111ad565b60005b82811015611403578489015182556001820191506020850194506020810190506113de565b86831015611420578489015161141c601f891682611329565b8355505b6001600288020188555050505b505050505050565b7f4e487b7100000000000000000000000000000000000000000000000000000000600052601160045260246000fd5b600061146f82611231565b91507fffffffffffffffffffffffffffffffffffffffffffffffffffffffffffffffff82036114a1576114a0611435565b5b600182019050919050565b600073ffffffffffffffffffffffffffffffffffffffff82169050919050565b60006114d7826114ac565b9050919050565b6114e7816114cc565b82525050565b600082825260208201905092915050565b60005b8381101561151c578082015181840152602081019050611501565b60008484015250505050565b6000601f19601f8301169050919050565b600061154482611142565b61154e81856114ed565b935061155e8185602086016114fe565b61156781611528565b840191505092915050565b600060408201905061158760008301856114de565b81810360208301526115998184611539565b90509392505050565b60006115ad82611231565b91506115b883611231565b92508282019050808211156115d0576115cf611435565b5b92915050565b612397806115e56000396000f3fe60806040526004361061009c5760003560e01c80636c9230db116100645780636c9230db146101b35780636f77926b146101de57806375ce46a71461021d57806386cdf60414610248578063a87430ba14610273578063f14faf6f146102b15761009c565b8063075843c3146100a157806307ca140d146100ca578063141961bc146100f55780633b594a68146101395780635598f8cc14610176575b600080fd5b3480156100ad57600080fd5b506100c860048036038101906100c391906114d8565b6102cd565b005b3480156100d657600080fd5b506100df6105db565b6040516100ec919061159a565b60405180910390f35b34801561010157600080fd5b5061011c600480360381019061011791906115b5565b6105e1565b60405161013098979695949392919061168b565b60405180910390f35b34801561014557600080fd5b50610160600480360381019061015b91906115b5565b610766565b60405161016d9190611717565b60405180910390f35b34801561018257600080fd5b5061019d600480360381019061019891906115b5565b61079f565b6040516101aa919061192b565b60405180910390f35b3480156101bf57600080fd5b506101c8610ab0565b6040516101d5919061159a565b60405180910390f35b3480156101ea57600080fd5b506102056004803603810190610200919061194d565b610ab8565b60405161021493929190611a29565b60405180910390f35b34801561022957600080fd5b50610232610b8e565b60405161023f919061159a565b60405180910390f35b34801561025457600080fd5b5061025d610b94565b60405161026a9190611bfc565b60405180910390f35b34801561027f57600080fd5b5061029a6004803603810190610295919061194d565b610e84565b6040516102a8929190611c1e565b60405180910390f35b6102cb60048036038101906102c691906115b5565b610ec8565b005b42811161030f576040517f08c379a000000000000000000000000000000000000000000000000000000000815260040161030690611c93565b60405180910390fd5b60008211610352576040517f08c379a000000000000000000000000000000000000000000000000000000000815260040161034990611cff565b60405180910390fd5b6000845111610396576040517f08c379a000000000000000000000000000000000000000000000000000000000815260040161038d90611d6b565b60405180910390fd5b60008054905060006001600083815260200190815260200160002090506000548160000181905550868160010160006101000a81548173ffffffffffffffffffffffffffffffffffffffff021916908373ffffffffffffffffffffffffffffffffffffffff160217905550858160020190816104129190611f97565b508381600401819055508481600301908161042d9190611f97565b508281600501819055506000816006018190555060018160070160006101000a81548160ff02191690831515021790555060008081548092919061047090612098565b91905055506000600260003373ffffffffffffffffffffffffffffffffffffffff1673ffffffffffffffffffffffffffffffffffffffff1681526020019081526020016000209050600073ffffffffffffffffffffffffffffffffffffffff168160000160009054906101000a900473ffffffffffffffffffffffffffffffffffffffff1673ffffffffffffffffffffffffffffffffffffffff160361056c57338160000160006101000a81548173ffffffffffffffffffffffffffffffffffffffff021916908373ffffffffffffffffffffffffffffffffffffffff1602179055506003600081548092919061056690612098565b91905055505b80600101839080600181540180825580915050600190039060005260206000200160009091909190915055827fc04c663886cae794dc52158f70fe6c8ee3b0140d4f48647282f9b693ff688a6589896040516105c99291906120e0565b60405180910390a25050505050505050565b60005481565b60016020528060005260406000206000915090508060000154908060010160009054906101000a900473ffffffffffffffffffffffffffffffffffffffff169080600201805461063090611dba565b80601f016020809104026020016040519081016040528092919081815260200182805461065c90611dba565b80156106a95780601f1061067e576101008083540402835291602001916106a9565b820191906000526020600020905b81548152906001019060200180831161068c57829003601f168201915b5050505050908060030180546106be90611dba565b80601f01602080910402602001604051908101604052809291908181526020018280546106ea90611dba565b80156107375780601f1061070c57610100808354040283529160200191610737565b820191906000526020600020905b81548152906001019060200180831161071a57829003601f168201915b5050505050908060040154908060050154908060060154908060070160009054906101000a900460ff16905088565b600080548210801561079857506001600083815260200190815260200160002060070160009054906101000a900460ff165b9050919050565b6107a7611286565b60005482106107eb576040517f08c379a00000000000000000000000000000000000000000000000000000000081526004016107e29061215c565b60405180910390fd5b6001600083815260200190815260200160002060070160009054906101000a900460ff1661084e576040517f08c379a00000000000000000000000000000000000000000000000000000000081526004016108459061215c565b60405180910390fd5b60006001600084815260200190815260200160002090506000604051806101200160405280836000015481526020018360010160009054906101000a900473ffffffffffffffffffffffffffffffffffffffff1673ffffffffffffffffffffffffffffffffffffffff1681526020018360020180546108cc90611dba565b80601f01602080910402602001604051908101604052809291908181526020018280546108f890611dba565b80156109455780601f1061091a57610100808354040283529160200191610945565b820191906000526020600020905b81548152906001019060200180831161092857829003601f168201915b5050505050815260200183600301805461095e90611dba565b80601f016020809104026020016040519081016040528092919081815260200182805461098a90611dba565b80156109d75780601f106109ac576101008083540402835291602001916109d7565b820191906000526020600020905b8154815290600101906020018083116109ba57829003601f168201915b505050505081526020018360040154815260200183600501548152602001836006015481526020018360070160009054906101000a900460ff161515815260200183600801805480602002602001604051908101604052809291908181526020018280548015610a9c57602002820191906000526020600020905b8160009054906101000a900473ffffffffffffffffffffffffffffffffffffffff1673ffffffffffffffffffffffffffffffffffffffff1681526020019060010190808311610a52575b505050505081525090508092505050919050565b600042905090565b60006060600080600260008673ffffffffffffffffffffffffffffffffffffffff1673ffffffffffffffffffffffffffffffffffffffff16815260200190815260200160002090508060000160009054906101000a900473ffffffffffffffffffffffffffffffffffffffff1681600101826002015481805480602002602001604051908101604052809291908181526020018280548015610b7957602002820191906000526020600020905b815481526020019060010190808311610b65575b50505050509150935093509350509193909250565b60035481565b60606000805467ffffffffffffffff811115610bb357610bb2611377565b5b604051908082528060200260200182016040528015610bec57816020015b610bd9611286565b815260200190600190039081610bd15790505b50905060005b600054811015610e7c576000600160008381526020019081526020016000209050604051806101200160405280826000015481526020018260010160009054906101000a900473ffffffffffffffffffffffffffffffffffffffff1673ffffffffffffffffffffffffffffffffffffffff168152602001826002018054610c7890611dba565b80601f0160208091040260200160405190810160405280929190818152602001828054610ca490611dba565b8015610cf15780601f10610cc657610100808354040283529160200191610cf1565b820191906000526020600020905b815481529060010190602001808311610cd457829003601f168201915b50505050508152602001826003018054610d0a90611dba565b80601f0160208091040260200160405190810160405280929190818152602001828054610d3690611dba565b8015610d835780601f10610d5857610100808354040283529160200191610d83565b820191906000526020600020905b815481529060010190602001808311610d6657829003601f168201915b505050505081526020018260040154815260200182600501548152602001826006015481526020018260070160009054906101000a900460ff161515815260200182600801805480602002602001604051908101604052809291908181526020018280548015610e4857602002820191906000526020600020905b8160009054906101000a900473ffffffffffffffffffffffffffffffffffffffff1673ffffffffffffffffffffffffffffffffffffffff1681526020019060010190808311610dfe575b5050505050815250838381518110610e6357610e6261217c565b5b6020026020010181905250508080600101915050610bf2565b508091505090565b60026020528060005260406000206000915090508060000160009054906101000a900473ffffffffffffffffffffffffffffffffffffffff16908060020154905082565b60003411610f0b576040517f08c379a0000000000000000000000000000000000000000000000000000000008152600401610f02906121f7565b60405180910390fd5b6000548110610f4f576040517f08c379a0000000000000000000000000000000000000000000000000000000008152600401610f4690612263565b60405180910390fd5b6001600082815260200190815260200160002060070160009054906101000a900460ff16610fb2576040517f08c379a0000000000000000000000000000000000000000000000000000000008152600401610fa990612263565b60405180910390fd5b4260016000838152602001908152602001600020600501541161100a576040517f08c379a0000000000000000000000000000000000000000000000000000000008152600401611001906122cf565b60405180910390fd5b60006001600083815260200190815260200160002090503481600601600082825461103591906122ef565b925050819055506000600260003373ffffffffffffffffffffffffffffffffffffffff1673ffffffffffffffffffffffffffffffffffffffff1681526020019081526020016000209050600073ffffffffffffffffffffffffffffffffffffffff168160000160009054906101000a900473ffffffffffffffffffffffffffffffffffffffff1673ffffffffffffffffffffffffffffffffffffffff160361113357338160000160006101000a81548173ffffffffffffffffffffffffffffffffffffffff021916908373ffffffffffffffffffffffffffffffffffffffff1602179055506003600081548092919061112d90612098565b91905055505b3481600201600082825461114791906122ef565b9250508190555081600801339080600181540180825580915050600190039060005260206000200160009091909190916101000a81548173ffffffffffffffffffffffffffffffffffffffff021916908373ffffffffffffffffffffffffffffffffffffffff16021790555060008260020180546111c490611dba565b80601f01602080910402602001604051908101604052809291908181526020018280546111f090611dba565b801561123d5780601f106112125761010080835404028352916020019161123d565b820191906000526020600020905b81548152906001019060200180831161122057829003601f168201915b50505050509050837f8b467d6c4f91a5778b10d281906cf85b4e169d206e6a13058ebefaf509a36a3182333460405161127893929190612323565b60405180910390a250505050565b60405180610120016040528060008152602001600073ffffffffffffffffffffffffffffffffffffffff1681526020016060815260200160608152602001600081526020016000815260200160008152602001600015158152602001606081525090565b6000604051905090565b600080fd5b600080fd5b600073ffffffffffffffffffffffffffffffffffffffff82169050919050565b6000611329826112fe565b9050919050565b6113398161131e565b811461134457600080fd5b50565b60008135905061135681611330565b92915050565b600080fd5b600080fd5b6000601f19601f8301169050919050565b7f4e487b7100000000000000000000000000000000000000000000000000000000600052604160045260246000fd5b6113af82611366565b810181811067ffffffffffffffff821117156113ce576113cd611377565b5b80604052505050565b60006113e16112ea565b90506113ed82826113a6565b919050565b600067ffffffffffffffff82111561140d5761140c611377565b5b61141682611366565b9050602081019050919050565b82818337600083830152505050565b6000611445611440846113f2565b6113d7565b90508281526020810184848401111561146157611460611361565b5b61146c848285611423565b509392505050565b600082601f8301126114895761148861135c565b5b8135611499848260208601611432565b91505092915050565b6000819050919050565b6114b5816114a2565b81146114c057600080fd5b50565b6000813590506114d2816114ac565b92915050565b600080600080600060a086880312156114f4576114f36112f4565b5b600061150288828901611347565b955050602086013567ffffffffffffffff811115611523576115226112f9565b5b61152f88828901611474565b945050604086013567ffffffffffffffff8111156115505761154f6112f9565b5b61155c88828901611474565b935050606061156d888289016114c3565b925050608061157e888289016114c3565b9150509295509295909350565b611594816114a2565b82525050565b60006020820190506115af600083018461158b565b92915050565b6000602082840312156115cb576115ca6112f4565b5b60006115d9848285016114c3565b91505092915050565b6115eb8161131e565b82525050565b600081519050919050565b600082825260208201905092915050565b60005b8381101561162b578082015181840152602081019050611610565b60008484015250505050565b6000611642826115f1565b61164c81856115fc565b935061165c81856020860161160d565b61166581611366565b840191505092915050565b60008115159050919050565b61168581611670565b82525050565b6000610100820190506116a1600083018b61158b565b6116ae602083018a6115e2565b81810360408301526116c08189611637565b905081810360608301526116d48188611637565b90506116e3608083018761158b565b6116f060a083018661158b565b6116fd60c083018561158b565b61170a60e083018461167c565b9998505050505050505050565b600060208201905061172c600083018461167c565b92915050565b61173b816114a2565b82525050565b61174a8161131e565b82525050565b600082825260208201905092915050565b600061176c826115f1565b6117768185611750565b935061178681856020860161160d565b61178f81611366565b840191505092915050565b6117a381611670565b82525050565b600081519050919050565b600082825260208201905092915050565b6000819050602082019050919050565b60006117e18383611741565b60208301905092915050565b6000602082019050919050565b6000611805826117a9565b61180f81856117b4565b935061181a836117c5565b8060005b8381101561184b57815161183288826117d5565b975061183d836117ed565b92505060018101905061181e565b5085935050505092915050565b6000610120830160008301516118716000860182611732565b5060208301516118846020860182611741565b506040830151848203604086015261189c8282611761565b915050606083015184820360608601526118b68282611761565b91505060808301516118cb6080860182611732565b5060a08301516118de60a0860182611732565b5060c08301516118f160c0860182611732565b5060e083015161190460e086018261179a565b5061010083015184820361010086015261191e82826117fa565b9150508091505092915050565b600060208201905081810360008301526119458184611858565b905092915050565b600060208284031215611963576119626112f4565b5b600061197184828501611347565b91505092915050565b600081519050919050565b600082825260208201905092915050565b6000819050602082019050919050565b60006119b28383611732565b60208301905092915050565b6000602082019050919050565b60006119d68261197a565b6119e08185611985565b93506119eb83611996565b8060005b83811015611a1c578151611a0388826119a6565b9750611a0e836119be565b9250506001810190506119ef565b5085935050505092915050565b6000606082019050611a3e60008301866115e2565b8181036020830152611a5081856119cb565b9050611a5f604083018461158b565b949350505050565b600081519050919050565b600082825260208201905092915050565b6000819050602082019050919050565b600061012083016000830151611aac6000860182611732565b506020830151611abf6020860182611741565b5060408301518482036040860152611ad78282611761565b91505060608301518482036060860152611af18282611761565b9150506080830151611b066080860182611732565b5060a0830151611b1960a0860182611732565b5060c0830151611b2c60c0860182611732565b5060e0830151611b3f60e086018261179a565b50610100830151848203610100860152611b5982826117fa565b9150508091505092915050565b6000611b728383611a93565b905092915050565b6000602082019050919050565b6000611b9282611a67565b611b9c8185611a72565b935083602082028501611bae85611a83565b8060005b85811015611bea5784840389528151611bcb8582611b66565b9450611bd683611b7a565b925060208a01995050600181019050611bb2565b50829750879550505050505092915050565b60006020820190508181036000830152611c168184611b87565b905092915050565b6000604082019050611c3360008301856115e2565b611c40602083018461158b565b9392505050565b7f446561646c696e652073686f756c6420626520696e2074686520667574757265600082015250565b6000611c7d6020836115fc565b9150611c8882611c47565b602082019050919050565b60006020820190508181036000830152611cac81611c70565b9050919050565b7f546172676574206d7573742062652067726561746572207468616e2030000000600082015250565b6000611ce9601d836115fc565b9150611cf482611cb3565b602082019050919050565b60006020820190508181036000830152611d1881611cdc565b9050919050565b7f5469746c652063616e6e6f7420626520656d7074790000000000000000000000600082015250565b6000611d556015836115fc565b9150611d6082611d1f565b602082019050919050565b60006020820190508181036000830152611d8481611d48565b9050919050565b7f4e487b7100000000000000000000000000000000000000000000000000000000600052602260045260246000fd5b60006002820490506001821680611dd257607f821691505b602082108103611de557611de4611d8b565b5b50919050565b60008190508160005260206000209050919050565b60006020601f8301049050919050565b600082821b905092915050565b600060088302611e4d7fffffffffffffffffffffffffffffffffffffffffffffffffffffffffffffffff82611e10565b611e578683611e10565b95508019841693508086168417925050509392505050565b6000819050919050565b6000611e94611e8f611e8a846114a2565b611e6f565b6114a2565b9050919050565b6000819050919050565b611eae83611e79565b611ec2611eba82611e9b565b848454611e1d565b825550505050565b600090565b611ed7611eca565b611ee2818484611ea5565b505050565b5b81811015611f0657611efb600082611ecf565b600181019050611ee8565b5050565b601f821115611f4b57611f1c81611deb565b611f2584611e00565b81016020851015611f34578190505b611f48611f4085611e00565b830182611ee7565b50505b505050565b600082821c905092915050565b6000611f6e60001984600802611f50565b1980831691505092915050565b6000611f878383611f5d565b9150826002028217905092915050565b611fa0826115f1565b67ffffffffffffffff811115611fb957611fb8611377565b5b611fc38254611dba565b611fce828285611f0a565b600060209050601f8311600181146120015760008415611fef578287015190505b611ff98582611f7b565b865550612061565b601f19841661200f86611deb565b60005b8281101561203757848901518255600182019150602085019450602081019050612012565b868310156120545784890151612050601f891682611f5d565b8355505b6001600288020188555050505b505050505050565b7f4e487b7100000000000000000000000000000000000000000000000000000000600052601160045260246000fd5b60006120a3826114a2565b91507fffffffffffffffffffffffffffffffffffffffffffffffffffffffffffffffff82036120d5576120d4612069565b5b600182019050919050565b60006040820190506120f560008301856115e2565b81810360208301526121078184611637565b90509392505050565b7f43616d706169676e20646f6573206e6f74206578697374000000000000000000600082015250565b60006121466017836115fc565b915061215182612110565b602082019050919050565b6000602082019050818103600083015261217581612139565b9050919050565b7f4e487b7100000000000000000000000000000000000000000000000000000000600052603260045260246000fd5b7f416d6f756e74206d7573742062652067726561746572207468616e2030000000600082015250565b60006121e1601d836115fc565b91506121ec826121ab565b602082019050919050565b60006020820190508181036000830152612210816121d4565b9050919050565b7f43616d706169676e20646f65736e277420657869737400000000000000000000600082015250565b600061224d6016836115fc565b915061225882612217565b602082019050919050565b6000602082019050818103600083015261227c81612240565b9050919050565b7f43616d706169676e206578706972656400000000000000000000000000000000600082015250565b60006122b96010836115fc565b91506122c482612283565b602082019050919050565b600060208201905081810360008301526122e8816122ac565b9050919050565b60006122fa826114a2565b9150612305836114a2565b925082820190508082111561231d5761231c612069565b5b92915050565b6000606082019050818103600083015261233d8186611637565b905061234c60208301856115e2565b612359604083018461158b565b94935050505056fea26469706673582212208905648f92c669cb6ab7a7f027011f9f2143298dd11a357979da9f1fa98abd4e64736f6c634300081b003368747470733a2f2f676174657761792e70696e6174612e636c6f75642f697066732f516d644562503739326e47647775413979375847625a5a71376a61717667734c4334526d6a45433975414174553568747470733a2f2f676174657761792e70696e6174612e636c6f75642f697066732f516d613468695742534d5477384e4259796f555a4251694d79486b4874324571567935797337456e66504451384b68747470733a2f2f676174657761792e70696e6174612e636c6f75642f697066732f516d624d7965684c354e376f6a4a4c734733363138786b396b62787a62686368327633524652734159595146614c68747470733a2f2f676174657761792e70696e6174612e636c6f75642f697066732f516d5936345a7033733137584341414343673569477473684645724e52646753417677316378526e5034796b525368747470733a2f2f676174657761792e70696e6174612e636c6f75642f697066732f516d5142776569685437364e374b35384d7578383278396f6462593352794d3958524a6f48317050535733554a7468747470733a2f2f676174657761792e70696e6174612e636c6f75642f697066732f516d59415252587a504b4d6f59337a6d5941364339325a447765574758436a3775566353613256314d4d6775437668747470733a2f2f676174657761792e70696e6174612e636c6f75642f697066732f516d4e6b39764677574d4269636b486750386446447745444d79397735526f5264746361645471465750765444614c616220746f204c6966653a20526573656172636820666f72205261726520446973656173657368747470733a2f2f676174657761792e70696e6174612e636c6f75642f697066732f516d51395163355570587454354238654a446d6d7072353348446b7a753167464a6a5a6f69654a624c776e54787768747470733a2f2f676174657761792e70696e6174612e636c6f75642f697066732f516d6264686f426552566a3965706150414c67754766755958535562324664337032653577714441794a41417861",
  "linkReferences": {},
  "deployedLinkReferences": {}
}